:020000001628C0
:0E0006008312031321088A00200882000800DC
:1000140003208A110A128000840AA00A0319A10A83
:08002400F003031D0A28080087
:10002C003F3083120313A2000630A3005B30A40000
:10003C004F30A5006630A6006D30A7007D30A800BB
:10004C000730A9007F30AA006F30AB00AC01FF3045
:10005C008316860087018312870183168801831219
:10006C0088012C08223E840000088800061D5528B3
:10007C0009302C02031855280714861846284328E3
:10008C00071086194A2847288714AC0A2C08223EE8
:10009C008400000888000618542851288710061F71
:1000AC006E282C08003C03186E280715861A5F284A
:1000BC005C280711861B632860288715AC032C0865
:1000CC00223E840000088800061A6D286A288711D1
:1000DC002C08093A031D74280716752807123728AF
:0200EC00762874
:02400E004A2F37
:00000001FF
